:020000040800F2
:10000000600600206D010008A9040008A104000892
:10001000A5040008850300081D0600080000000074
:10002000000000000000000000000000CD040008F7
:100030008903000800000000AB040008B9050008AF
:100040008701000887010008870100088701000870
:100050008701000887010008870100088701000860
:100060008701000887010008870100088701000850
:100070008701000887010008870100088701000840
:100080008701000887010008870100088701000830
:100090008701000887010008870100088701000820
:1000A0008701000887010008870100088701000810
:1000B0008701000887010008870100088701000800
:1000C00087010008870100088701000887010008F0
:1000D00087010008870100088701000887010008E0
:1000E00087010008870100088701000800F002F876
:1000F00000F02CF80AA090E8000C82448344AAF196
:100100000107DA4501D100F021F8AFF2090EBAE893
:100110000F0013F0010F18BFFB1A43F0010318473B
:100120000C0500001C05000000230024002500260B
:10013000103A28BF78C1FBD8520728BF30C148BF4A
:100140000B6070471FB51FBD10B510BD00F031F832
:100150001146FFF7F7FF00F063FA00F04FF803B421
:10016000FFF7F2FF03BC00F053F800000948804796
:1001700009480047FEE7FEE7FEE7FEE7FEE7FEE789
:10018000FEE7FEE7FEE7FEE704480549054A064BA1
:1001900070470000BD050008ED0000086000002069
:1001A0006006002060020020600200207047704757
:1001B0007047754600F028F8AE460500694653467C
:1001C00020F00700854618B020B5FFF7DDFFBDE839
:1001D00020404FF000064FF000074FF000084FF0AE
:1001E000000B21F00701AC46ACE8C009ACE8C0093F
:1001F000ACE8C009ACE8C0098D4670470446AFF3CF
:1002000000802046FFF7ABFF004870470000002049
:1002100001491820ABBEFEE726000200704721B15D
:10022000826842F00102826003E0826822F00102EB
:100230008260704708B50121042000F037F90120E1
:10024000ADF8000000208DF8030003208DF80200B7
:1002500069460C4800F099F80220ADF800006946A4
:10026000084800F092F80420ADF8000069460548FF
:1002700000F08BF80820ADF800006946014800F056
:1002800084F808BD00080140014600208A6802F099
:1002900004020AB1012000E000207047014600205E
:1002A0008A6802F008020AB1012000E000207047CD
:1002B00030B502460020002350680F4C20400D79D5
:1002C0000C6844EA05242043506090680B4C2040A1
:1002D000D1E902542C434D7944EA4504204390600F
:1002E000D06A20F470000C7C641EE4B2234340EA20
:1002F0000350D06230BD0000FFFEF0FFFDF7F1FFBC
:1003000000B585B00121480200F0D0F8002000902F
:1003100003904FF46020029000208DF805008DF8C6
:10032000040001208DF8100069460D48FFF7C0FF5A
:1003300001210B48FFF773FF094800F013F800BFD5
:100340000748FFF7ABFF0128FAD0054800F00FF887
:1003500000BF0348FFF798FF0128FAD005B000BDA1
:1003600000240140816841F0080181607047816884
:1003700041F004018160704710B5FFF75BFFFFF7A4
:10038000BFFF10BD00BFFEE770472DE9F0410246F8
:1003900000250026002000230024002791F803C038
:1003A0000CF00F0591F803C00CF0100CBCF1000F1D
:1003B00003D091F802C04CEA050591F800C0BCF1E9
:1003C000000F31D0146800202BE04FF0010C0CFA24
:1003D00000F3B1F800C00CEA03069E4220D183006E
:1003E0004FF00F0C0CFA03F7BC4305FA03FC4CEA80
:1003F000040491F803C0BCF1280F06D14FF0010CA2
:100400000CFA00FCC2F814C00AE091F803C0BCF179
:10041000480F05D14FF0010C0CFA00FCC2F810C0D7
:10042000401C0828D1D31460B1F800C0BCF1FF0F04
:1004300034DD546800202EE000F1080C4FF0010874
:1004400008FA0CF3B1F800C00CEA03069E4221D171
:1004500083004FF00F0C0CFA03F7BC4305FA03FCC2
:100460004CEA040491F803C0BCF1280F05D100F157
:10047000080C08FA0CF8C2F8148091F803C0BCF11B
:10048000480F07D100F1080C4FF0010808FA0CF8EA
:10049000C2F81080401C0828CED35460BDE8F0811B
:1004A00000BFFEE700BFFEE77047704729B1064A6C
:1004B00092690243044B9A6104E0034A92698243C1
:1004C000014B9A617047000000100240704710B560
:1004D00000F002F810BD00000CB500200190009063
:1004E0003348006840F480303149086000BF30482C
:1004F000006800F4003000900198401C01900098C2
:1005000018B90198B0F5A06FF1D12948006800F43E
:10051000003010B10120009001E000200090009810
:10052000012843D12348006840F0100021490860A9
:100530000846006820F0030008600846006840F0A4
:10054000020008601A484068194948600846406837
:1005500048600846406840F480604860084640684B
:1005600020F47C1048600846406840F4E810486079
:100570000846006840F08070086000BF0C480068C2
:1005800000F000700028F9D00948406820F003000E
:10059000074948600846406840F00200486000BFD4
:1005A0000348406800F00C000828F9D10CBD000099
:1005B00000100240002002407047000010B51348B0
:1005C000006840F001001149086008464068104981
:1005D00008400E494860084600680E4908400B492B
:1005E00008600846006820F48020086008464068DB
:1005F00020F4FE0048604FF41F008860FFF767FF9B
:100600004FF000600449086010BD00000010024077
:100610000000FFF8FFFFF6FE08ED00E000BFFEE778
:1006200010B5FFF7A9FE002010BD00003C06000831
:0C06300000000020600600002801000807
:04000005080000ED02
:00000001FF
