:020000040800F2
:1000000078060020A1010008C9150008C1150008E4
:10001000C51500089B140008B51F0008000000006B
:10002000000000000000000000000000351A000879
:100030009F14000800000000F11900081D1C0008B2
:10004000BB010008BB010008BB010008BB010008A0
:10005000BB010008BB010008BB010008BB01000890
:10006000BB010008BB010008BB010008BB01000880
:10007000BB010008BB010008BB010008BB01000870
:10008000BB010008BB010008BB010008BB01000860
:10009000BB010008BB010008BB010008BB01000850
:1000A000BB010008BB010008BB010008BB01000840
:1000B000BB010008BB010008BB010008BB01000830
:1000C000BB010008BB010008BB010008BB01000820
:1000D000BB010008BB010008BB010008BB01000810
:1000E000BB010008BB010008BB01000800F002F8DA
:1000F00000F047F80AA090E8000C82448344AAF17B
:100100000107DA4501D100F03CF8AFF2090EBAE878
:100110000F0013F0010F18BFFB1A43F0010318473B
:100120008C2C0000AC2C0000103A24BF78C878C199
:10013000FAD8520724BF30C830C144BF04680C60ED
:10014000704700000023002400250026103A28BF35
:1001500078C1FBD8520728BF30C148BF0B60704739
:10016000662902F0DE82002070471FB500F028FBF0
:1001700004000020002101F0EFFFE0601FBD10B57A
:1001800010BD00F019FC1146FFF7EFFF01F030FF42
:1001900000F037FC03B4FFF7F2FF03BC00F078FC7B
:1001A0000948804709480047FEE7FEE7FEE7FEE70B
:1001B000FEE7FEE7FEE7FEE7FEE7FEE70448054947
:1001C000054A064B70470000211C0008ED0000089E
:1001D00078000020780600207802002078020020B5
:1001E0000FB41CB5074B06AA7B44694600900598DE
:1001F00000F0CDFA0020694600F0DCFA1CBC5DF886
:1002000014FB0000C905000070B50446856900684C
:10021000C10601D5302600E02026C00707D070BDFA
:10022000D4E9012130469047206A401C20626D1EAF
:10023000F6D570BD70B5044685690078C00707D152
:1002400070BDD4E9012120209047206A401C206223
:100250006D1EF6D570BD2DE9F0474FF0000A8946B6
:100260000446C0F820A02046E1688847002876D0E0
:10027000252806D0D4E901219047206A401C20623D
:10028000F1E7E168204600258847C4F81CA006462F
:100290000027C4F818A02A2E09D0304601F0A0FE8D
:1002A00038B304EB8708303EC8F8186019E059F8F5
:1002B000041B204604EB87029161E1688847012F07
:1002C000064618D1E069002820DA25F020051DE057
:1002D000D8F8180000EB800006EB40003038C8F872
:1002E00018002046E1688847064601F079FE00289C
:1002F000EED1012F0AD02E2E08D12046E168884782
:100300007F1C0646022F45F02005C4DBA0690028AB
:1003100003DA404245F00105A061E80701D025F06D
:100320001005B6B1A6F14100192802D8203645F4CF
:1003300000654A463146204625604D46FFF710FFCE
:1003400058B1012806D0ED1D25F0070000F108097D
:1003500089E704E005F1040985E730468AE7206A69
:10036000BDE8F08770477047704770472DE9FF4F31
:100370000C461E464FF0FF378BB0D2E90001DDF886
:1003800060800A908A46C1F30A5505B93D460021AE
:1003900008464FF00000BAF1000F00F4400005DA03
:1003A00000EB80004FF4400101EA50004FEA905901
:1003B000B9F1010F00DDB9460A9850EA4A000ED0A3
:1003C00044F61050A5F2FF3545432F14B8F1000F45
:1003D0001ED07542291E1EDDC9F100021CE0B8F1D5
:1003E000010F4FF0000001D0302103E0F24305E09F
:1003F0002154401CB042FBDB304600220021215436
:100400000B99C1F80880C1E900200FB0BDE8F08F5A
:10041000BD1B6D1CDEE74A4600DA694206A800F003
:1004200059FA06AB93E8070003AB83E80700504690
:100430000A9900F034FB8DE80700A0F500501F3842
:1004400000900398002D09DD42F21F014A4608443E
:1004500003A90390684600F093FD08E0A0F5005062
:100460004A461F3803A90390684600F09DFD8DE8B9
:1004700007000004000C03D04FF0FF30410800E0FB
:100480001046B8F1000F03D00022009215461EE07E
:10049000751E05D400F098F9303262556D1EF9D5FD
:1004A000B3460122084302D000227F1C04E02078DA
:1004B000302801D100227F1E002A099786D01DE036
:1004C000112D07DA00F080F9303262556D1C50EAC8
:1004D0000102F5D1084302D00098C8B10EE0002116
:1004E000681E05E0235C625C63542254401E491C74
:1004F0008142F7DBAB46A81B401E0990002004F8A0
:100500000B000B98099AC0F80880C0E9002B7CE723
:1005100011264FF0000859E72DE9F04F88460446B0
:10052000D21D22F0070191B0D1E90001CDE90A0105
:1005300001F042FD02460B98C00F01D02D2007E0CC
:100540002068810701D52B2002E0202101EAC000AC
:10055000032A099001D0072A05DB034641462046BD
:1005600000F078F90BE12078800601D5E06900E021
:100570000620B8F1650F814606D0B8F1660F18D095
:10058000B8F1670F70D131E00020B9F1110F009080
:1005900001DB112301E009F101030AAA01A90CA85A
:1005A000FFF7E4FEDDE90C70002609F10105834642
:1005B00047E001204B4600904FF000470AAA01A9EE
:1005C0000CA8FFF7D3FEDDE90DB00C995D460026BF
:1005D00010B909F101000D18B9EB050003D4C0F101
:1005E000FF3609F10105A5EB09002BE0B9F1010F78
:1005F00001DA4FF001090020B9F1110F00904846CF
:1006000001DD112300E003460AAA01A90CA8FFF7A7
:10061000ADFEDDE90C704D460026834620780007CC
:100620000AD4AB4500DA5D4601A8012D04DD41196D
:1006300011F8011C302907D04F4502DA17F1040FD9
:1006400004DA012082460FE06D1EEEE7002F02DC87
:10065000ED1B3E4403E0781CA84200DD7D1CB81B66
:1006600000F1010A4FF000472078000703D4AA45A3
:1006700001DB4FF0FF3A0021B7F1004F0DF14308C5
:100680008DF8431024D002202B23002F01DA7F4263
:100690002D230A21021EA0F1010000DC5FB197FBAF
:1006A000F1FC97FBF1F201FB1C7C17460CF1300CBE
:1006B00008F801CDEEE7A8F10100037021880905D3
:1006C00001D5452100E06521A0F1010800F8011CD9
:1006D00009980FA9A1EB0807FF1D00B101204119DE
:1006E00001EBEA70A1693844081A401EA061207825
:1006F000C00602D42046FFF787FD099828B1D4E947
:1007000001219047206A401C20622078C00622D533
:100710002046FFF779FD1EE0002E04DBB34502DD25
:1007200001A8805D00E03020D4E901219047206AD3
:10073000401C2062761CAAF101005FEA000A0AD17F
:1007400000F03EF8C0680168405CD4E901219047A0
:10075000206A401C2062281EA5F10105DCDC07E0B0
:10076000D4E9012118F8010B9047206A401C20624F
:10077000381EA7F10107F3DC2046FFF75BFD0320DD
:1007800011B043E601694A1C02610878704700B560
:100790008FB0CDE901310021059105497944CDE9BA
:1007A000031011466846FFF756FD0FB000BD00006C
:1007B000E5FFFFFF0A6802F8010B0A6070470000BE
:1007C000004870473800002030B5B0F10A024FEA07
:1007D000900E71F100034EEA817EB0EB0E0061EBEA
:1007E00091014FEA101E4EEA017E10EB0E0041EB24
:1007F00011114FEA102E4EEA016E10EB0E0041EB84
:1008000011214FEA104E4EEA014E10EB0E0041EB63
:100810001141401841F100014FEAD00040EA417017
:100820004FEAD10110EB80054FEA810444EA90744D
:1008300044EB01046D1944EB0404521BA3414FF037
:10084000000348BF0A3200D530BD401C41F1000111
:1008500030BD00002DE9F0411F4604460326016823
:10086000072A01F4006004DB08B116A505E016A50F
:1008700003E008B115A500E015A521F010002060E7
:10088000A069C01EA0610FB1401EA0612046FFF705
:10089000BBFC4FB1D4E9012138469047206A401C87
:1008A0002062C01C206206E0206AFAE7D4E9012138
:1008B00015F8010B9047761EF8D22046FFF7BAFCD8
:1008C000BDE8F0814E414E006E616E00494E46001B
:1008D000696E66002DE9F047814616468AB03348B6
:1008E00078440DC88DE80D0030487844801C03AC76
:1008F0000DC884E80D0041F69B300844372190FB79
:10090000F1F290FBF1F5A5F1800501FB12041B3C0F
:1009100002D56442012000E00020DFF890A080466C
:100920000027FA44AAF1BE0A0DE0E00709D03246DA
:10093000684607EB47010AEB810100F035FB8DE8C3
:10094000070064107F1C002CEFD1184F7F44AC3F90
:1009500018E0E80714D007EB04100DF1180A90E82E
:100960000E008AE80E00C068F04201D19819089084
:10097000324606A903A800F017FB03AB83E8070083
:100980006D10641C002DE4D132466946B8F1000FA9
:1009900003A802D000F0F4FA01E000F005FBC9E979
:1009A0000001C9F808200AB0BDE8F087B0240000B3
:1009B00000487047180000207546FFF7F9FFAE4663
:1009C00005006946534620F00700854618B020B55B
:1009D000FFF7F4FBBDE820404FF000064FF00007A2
:1009E0004FF000084FF0000B21F00701AC46ACE8D7
:1009F000C009ACE8C009ACE8C009ACE8C0098D4644
:100A000070470446AFF300802046FFF7C3FB0000A9
:100A10004FF0013C50F8042B51F8043B9A4221D18D
:100A2000A2EB0C03934313EACC1317D150F8042B19
:100A300051F8043B9A4215D1A2EB0C03934313EAFD
:100A4000CC130BD150F8042B51F8043B9A4209D136
:100A5000A2EB0C03934313EACC13DBD04FF000005E
:100A6000704700BFD01A01BAB1FA81F101F0180144
:100A700022FA01F0CB40C1F12001DBB2C0B2C01AB2
:100A80002CFA01F3D11A914311EAC311E6D1704750
:100A900001491820ABBEFEE72600020070475FEA5E
:100AA000400C08BF91F0000F4FEA8C234FEAC1229F
:100AB00043EA51514FEA1C5018BF00F5F0404FEA8D
:100AC000300018BF41F000415FEA6C5C00F0298003
:100AD000BCF1FF3F08BF40F080407047130C06BFD9
:100AE00012044FF0100C4FF0000C130E04BF120252
:100AF0000CF1080C130F04BF12010CF1040C930F3E
:100B000004BF92000CF1020CD30F04BF52000CF191
:100B1000010C11464FF00002A0F11F00A0EB0C00E9
:100B2000704711F0004F08BF704731F000413FF4AB
:100B3000D5AF0B0C06BF09044FF0100C4FF0000CA2
:100B40000B0E04BF09020CF1080C0B0F04BF0901C6
:100B50000CF1040C8B0F04BF89000CF1020CCB0FBD
:100B600004BF49000CF1010CCCF12003A0EB0C00F8
:100B700022FA03F302FA0CF241EA030100F1010048
:100B8000704720F07F4C80EA030023F07F47ACEBF6
:100B9000070303F57C5300F0004003F1FF032DE948
:100BA00080494FEA154B09B44FEA144325EA0B4E2E
:100BB00024EA03480FF2042606EB132749083E787F
:100BC0005FEA320203FB0667C7F5000707FB06F67C
:100BD0004FEA54374FEAD64606F1020607FB066C89
:100BE000CCF1005C4FEA1C472CEA074C07FB06F4EB
:100BF0000CFB06F504EB15464FEA961634BF0020B1
:100C00004FF000404FEAD13706FB07FC4FEA1C4C7F
:100C10000CFB0BF7D21B03FB0CF761EB07010CFB82
:100C20000EF7B0EB074072EB17420CFB08F734BF2E
:100C3000A2EB0742B2EB074261EB17414FEA0C44CB
:100C40004FEA910706FB07FC4FEA1C4C0CFB0BF725
:100C5000B0EBC74072EB573203FB0CF734BFA2EB8B
:100C6000C742B2EBC74261EB57310CFB0EF7B0EB5A
:100C7000C70072EB57720CFB08F734BFA2EBC70238
:100C8000B2EBC70261EB5771039F4FEA816141EA02
:100C9000921104EBCC044FEAD1374FEA826206FB93
:100CA00007FC42EA90124FEA80604FEA1C4C0CFBB2
:100CB0000BF7D21B03FB0CF761EB07010CFB0EF7E4
:100CC000B0EB074072EB17420CFB08F734BFA2EB06
:100CD0000742B2EB074261EB17414FEA8C554FEAEE
:100CE000910704EB9C2406FB07FC4FEA1C4C0CFB11
:100CF0000BF7B0EBC74072EB573203FB0CF734BF76
:100D0000A2EBC742B2EBC74261EB57310CFB0EF7C7
:100D1000B0EBC70072EB57720CFB08F734BFA2EBC5
:100D2000C702B2EBC70261EB577115EB4C254FEAD6
:100D3000816141EA92114FEA82624FEAD13742EA79
:100D4000901206FB07FC44F100044FEA80604FEA72
:100D50001C4C0CFB0BF7D21B03FB0CF761EB0701E0
:100D60000CFB0EF7B0EB074072EB17420CFB08F7D9
:100D700034BFA2EB0742B2EB074261EB174115EB20
:100D80001C154FEA813141EA92414FEA823242EA30
:100D900090424FEA80304FEA0C7644F1000448EA72
:100DA00003434EEA0B484FF0000EB2EB080C71EB18
:100DB000030724BF624639464EEB0E0E4FF0000B80
:100DC0000018524149414BEB0B0BB2EB080C71EB95
:100DD00003077BF1000B24BF624639464EEB0E0E33
:100DE0004FF0000B0018524149414BEB0B0BB2EB9B
:100DF000080C71EB03077BF1000B24BF62463946F8
:100E00004EEB0E0E51EA020718BF46F0010616EB34
:100E10000E7655F1000254F1000103D5BDE88901B9
:100E2000BDE80088BDE88901BDE80048B619524117
:100E300041EB0101A3F10103704780807F7E7D7C3F
:100E40007B7A7978777676757473727171706F6E5C
:100E50006E6D6C6C6B6A6A69686867666665646407
:100E6000636362616160605F5F5E5E5D5D5C5C5B91
:100E70005B5A5A5959585857575656555555545400
:100E8000535352525251515050504F4F4F4E4E4D5E
:100E90004D4D4C4C4C4B4B4B4A4A4A4949494848AA
:100EA00048474747474646464545454444444443EA
:100EB00043434342424242414141002B26D4770002
:100EC00021D01CB54FEA370703B44FF010004FF0A4
:100ED00010014FF000000FBCBDE810400BF1010BFA
:100EE000BBF1010F08BF5FEA170722BF12F1010231
:100EF00011F101014FF0004143F1000300F0004007
:100F000043EA00007047F9D35708DAE746EA064695
:100F100013F1400F4FEA16461FDD13F1200FDFBF1C
:100F200016430A46002120335B42C8D0C3F1200794
:100F300046EA064602FA07F74FEA164646EA070669
:100F4000C3F1200722FA03F201FA07F721FA03F1AD
:100F50004FF0000342EA0702B1E746EA020646EA1A
:100F600006464FEA164646EA0106BCBF46EA064672
:100F7000360C4FF000034FF000024FF000019EE7E7
:100F80002DE9C048934630B491E8380007C831EAEB
:100F9000400C48BF34EA430C03D5FFF7F2FDFFF7DE
:100FA0008CFFF0BCBDE800882DE9C048934630B402
:100FB00091E8380007C810F0804F08BF13F0804F49
:100FC00003D100F005F8FFF778FFF0BCBDE800881A
:100FD00020F07F4780EA030023F07F4C07EB0C03EF
:100FE000A3F57C5300F00040A3F1FE0392F0000F44
:100FF00000F0B38095F0000F00F077802DE90149F3
:101000004FEA11404FEA144621EA004800FB06FC73
:1010100024EA064708FB06F607FB08F800FB07F77B
:1010200018EB06484CEB164C4FEA124B18EB0748EE
:101030004FEA15464CEB174022EA0B4E0BFB06FC21
:1010400025EA06470EFB06F607FB0EFE0BFB07F72D
:101050001EEB064E4CEB164C4FF000061EEB074EF7
:101060004CEB174B18EB0B0840F1000018EB0E0B84
:1010700058EB000840F100008F1A4FF000013CBF10
:10108000C943661B14BFB5EB040C00213CBFC94328
:10109000F61B4FEA17444EEA8E0E27EA04454FEA44
:1010A0001C4704FB07622CEA074C05FB07F70CFB07
:1010B00005F604FB0CFC16EB074642EB174216EB59
:1010C0000C4642EB1C421BEB060658EB0202414168
:1010D00046EA9E0601D5BDE80189B619524141EBA9
:1010E0000101A3F10103BDE801894FEA14454FEA6C
:1010F000114724EA054621EA074C05FB07F406FBE5
:1011000007F70CFB06F105FB0CFC11EB074144EB68
:1011100017444FEA124711EB0C4144EB1C4422EAFE
:10112000074C05FB07F206FB07F70CFB06F605FB71
:101130000CFC16EB074642EB174216EB0C4642EB53
:101140001C456A1854F1000148BF7047B619524156
:1011500041EB0101A3F10103704795F0000F37D077
:101160004FEA11424FEA144721EA024624EA074CAB
:1011700002FB07F106FB07F70CFB06F402FB0CFC75
:1011800014EB074441EB17414FEA154714EB0C44AD
:1011900041EB1C4125EA074C02FB07F506FB07F76C
:1011A0000CFB06F602FB0CFC16EB074645EB17455D
:1011B00016EB0C4645EB1C42121951F1000148BFD9
:1011C0007047B619524141EB0101A3F10103704789
:1011D0004FEA14454FEA114724EA054621EA074C35
:1011E00005FB07F106FB07F70CFB06F24FF00006C4
:1011F00005FB0CFC12EB074241EB174112EB0C42D2
:1012000051EB1C4148BF7047921841EB0101A3F11B
:101210000103704721B1826842F00102826003E05D
:10122000826822F0010282607047000008B5012147
:10123000042000F0EFFB0120ADF8000000208DF845
:10124000030003208DF8020069460C4800F028F9DD
:101250000220ADF800006946084800F021F904209A
:10126000ADF800006946054800F01AF90820ADF80D
:1012700000006946014800F013F908BD000801406C
:10128000014600208A6802F004020AB1012000E051
:10129000002070470146C86C80B2704702460020AB
:1012A00013680B400BB1012000E00020704701469D
:1012B00000208A6802F008020AB1012000E0002044
:1012C0007047000010B50446052301222146094855
:1012D00000F06CF80121074800F0C9F800BF0221B6
:1012E0000448FFF7DBFF0028F9D00248FFF7D2FFE0
:1012F00010BD00000024014030B50246002000234C
:1013000050680F4C20400D790C6844EA05242043B6
:10131000506090680B4C2040D1E902542C434D7929
:1013200044EA450420439060D06A20F470000C7CAD
:10133000641EE4B2234340EA0350D06230BD000093
:10134000FFFEF0FFFDF7F1FF00B585B00121480277
:1013500000F060FB0020009003904FF460200290AA
:1013600000208DF805008DF8040001208DF8100094
:1013700069460D48FFF7C0FF01210B48FFF74AFF00
:10138000094800F06FF800BF0748FFF790FF0128F9
:10139000FAD0054800F076F800BF0348FFF770FF69
:1013A0000128FAD005B000BD00240140F0B5044684
:1013B0000D4600200021092D11DDE068A5F10A0687
:1013C00006EB4607072606FA07F18843A5F10A0649
:1013D00006EB460603FA06F10843E0600CE02069DC
:1013E00005EB4507072606FA07F1884305EB450696
:1013F00003FA06F108432061072A0FDA606B561ED4
:1014000006EB86071F2606FA07F18843561E06EBF1
:10141000860605FA06F10843606322E00D2A0FDA1A
:10142000206BD61F06EB86071F2606FA07F18843B6
:10143000D61F06EB860605FA06F10843206310E086
:10144000E06AA2F10D0606EB86071F2606FA07F1F1
:101450008843A2F10D0606EB860605FA06F108435D
:10146000E062F0BD816841F008018160704721B100
:10147000826842F4A002826003E0826822F4A00243
:1014800082607047816841F004018160704710B547
:10149000FFF7CCFEFFF758FF10BD00BFFEE7704717
:1014A0002DE9F041024600250026002000230024FB
:1014B000002791F803C00CF00F0591F803C00CF061
:1014C000100CBCF1000F03D091F802C04CEA0505E6
:1014D00091F800C0BCF1000F31D0146800202BE05F
:1014E0004FF0010C0CFA00F3B1F800C00CEA03064F
:1014F0009E4220D183004FF00F0C0CFA03F7BC433F
:1015000005FA03FC4CEA040491F803C0BCF1280F6F
:1015100006D14FF0010C0CFA00FCC2F814C00AE02E
:1015200091F803C0BCF1480F05D14FF0010C0CFA43
:1015300000FCC2F810C0401C0828D1D31460B1F8D8
:1015400000C0BCF1FF0F34DD546800202EE000F134
:10155000080C4FF0010808FA0CF3B1F800C00CEACF
:1015600003069E4221D183004FF00F0C0CFA03F7C3
:10157000BC4305FA03FC4CEA040491F803C0BCF137
:10158000280F05D100F1080C08FA0CF8C2F81480F5
:1015900091F803C0BCF1480F07D100F1080C4FF0DF
:1015A000010808FA0CF8C2F81080401C0828CED3B5
:1015B0005460BDE8F0810AB1016100E0416170470B
:1015C00000BFFEE700BFFEE7704770B500240EE0E5
:1015D0000021204600F0E5F8002504E0002000F09E
:1015E00069F9681CC5B2802DF8DB601CC4B2082CF8
:1015F000EEDB70BD08B50121082000F00BFA4FF4B6
:101600008070ADF8000014208DF8030003208DF8E1
:10161000020069460A48FFF743FF4FF40070ADF837
:10162000000069460648FFF73BFF0122110204480B
:10163000FFF7C1FF012251020148FFF7BCFF08BDBF
:10164000000C014070B50546002415E080202041C3
:1016500000EA05024FF400710E48FFF7ACFF0122CB
:1016600011020C48FFF7A7FF00224FF480710948D0
:10167000FFF7A1FF601CC4B2082CE7DB01221102B6
:101680000448FFF798FF00224FF480710148FFF7EC
:1016900092FF70BD000C014010B5012251020A48B2
:1016A000FFF789FF012211020748FFF784FF00229C
:1016B0004FF400710448FFF77EFF00224FF4807161
:1016C0000148FFF778FF10BD000C014010B5002263
:1016D0004FF400710648FFF76EFF01221102044823
:1016E000FFF769FF012251020148FFF764FF10BDB7
:1016F000000C014070B5002406E0002500E06D1CE0
:10170000B5F57A7FFBD3641CB4F57A7FF5D3FFF788
:1017100071FFAE2000F0BEF8D52000F0BBF88020AD
:1017200000F0B8F8A82000F0B5F83F2000F0B2F8BB
:10173000D32000F0AFF8002000F0ACF8402000F01B
:10174000A9F8A12000F0A6F8C82000F0A3F8DA203C
:1017500000F0A0F8122000F09DF8812000F09AF827
:10176000CF2000F097F8D92000F094F8F12000F095
:1017700091F8DB2000F08EF8302000F08BF8A420E8
:1017800000F088F8A62000F085F88D2000F082F89F
:10179000142000F07FF8AF2000F07CF8FFF715FF71
:1017A00070BD70B505460C4645F0B00000F072F80B
:1017B000102141EA141000F06DF804F00F0000F061
:1017C00069F870BD2DE9F04105460E461746721EB8
:1017D000D206110E6A1E5206100EFFF7E2FF002419
:1017E00009E0A7F12001134A02EB0111085D00F0A6
:1017F00061F8601CC4B2082CF3DB721ED206110E15
:101800006A1E012303EB4202D0B2FFF7CAFF002495
:101810000BE0A7F12001074A02EB011204F10801D5
:10182000505C00F047F8601CC4B2082CF1DBBDE846
:10183000F0810000262700082DE9F04107460E46FA
:101840001546002407E02A5D3019C1B23846FFF77B
:10185000B9FF601CC4B2285D0028F4D1BDE8F08156
:101860002DE9F843054688461446204600F090FCD2
:10187000064632460B4605A16846FEF7B1FC6A46AD
:1018800041462846FFF7D8FFBDE8F88325332E31BF
:101890006600000010B50446FFF7FEFE7820FFF753
:1018A000D1FE0020FFF7CEFE2046FFF7CBFEFFF76C
:1018B0000DFF10BD10B50446FFF7EEFE7820FFF7D0
:1018C000C1FE4020FFF7BEFE2046FFF7BBFEFFF73C
:1018D000FDFE10BD10B504462146024800F00EFB87
:1018E00010BD00000004004010B504462146024827
:1018F00000F006FB10BD00000004004010B50446D7
:101900002146024800F0FEFA10BD0000000400402D
:1019100010B504462146024800F0F6FA10BD00005A
:101920000004004008B50121042000F073F80121F3
:10193000082000F06FF8C020ADF8000048208DF8B6
:10194000030003208DF8020069460548FFF7A8FD53
:101950000320ADF8000069460248FFF7A1FD08BD6D
:1019600000080140000C014010B5FFF7DBFF00F05C
:1019700001F810BD00B587B00121022000F03AF84F
:101980001A4800F089F90020ADF8160044F61F60EF
:10199000ADF814004720ADF810000020ADF812009B
:1019A00004A9124800F0B4FA6020ADF8000000204D
:1019B000ADF808000120ADF802000020ADF80600E7
:1019C00069460A4800F06EF96946084800F0B6F921
:1019D0006946064800F004FA6946044800F050FAE7
:1019E0000121024800F04CF907B000BD000400409E
:1019F0007047000029B1064AD2690243044BDA61FC
:101A000004E0034AD2698243014BDA617047000067
:101A10000010024029B1064A92690243044B9A61C0
:101A200004E0034A92698243014B9A6170470000C7
:101A300000100240704710B5FFF796FFFFF727FD33
:101A400010BD00002DE9F04104460A49204600F08F
:101A50002DFC8046084900F023FD0746074900F0A9
:101A6000C3FB064600F0E4FC85B22846FFF732FFD0
:101A7000BDE8F08100003443000048430000FA4311
:101A80002DE9F04104460A49204600F00FFC80464B
:101A9000084900F005FD0746074900F0A5FB06468A
:101AA00000F0C6FC85B22846FFF71EFFBDE8F081B6
:101AB00000003443000048430000FA432DE9F041A0
:101AC00004460A49204600F0F1FB8046084900F030
:101AD000E7FC0746074900F087FB064600F0A8FC34
:101AE00085B22846FFF70AFFBDE8F08100003443C5
:101AF000000048430000FA432DE9F04104460A493A
:101B0000204600F0D3FB8046084900F0C9FC074698
:101B1000074900F069FB064600F08AFC85B22846BA
:101B2000FFF7F6FEBDE8F0810000344300004843B3
:101B30000000FA4310B500F001F810BD0CB500200C
:101B4000019000903348006840F4803031490860CB
:101B500000BF3048006800F4003000900198401C3D
:101B60000190009818B90198B0F5A06FF1D12948FB
:101B7000006800F4003010B10120009001E0002066
:101B800000900098012843D12348006840F01000DD
:101B9000214908600846006820F0030008600846F4
:101BA000006840F0020008601A484068194948601F
:101BB0000846406848600846406840F480604860D5
:101BC0000846406820F47C1048600846406840F4AD
:101BD000E81048600846006840F08070086000BF68
:101BE0000C48006800F000700028F9D009484068EF
:101BF00020F00300074948600846406840F00200B2
:101C0000486000BF0348406800F00C000828F9D184
:101C10000CBD000000100240002002407047000090
:101C200010B51348006840F00100114908600846EB
:101C30004068104908400E494860084600680E494F
:101C400008400B4908600846006820F480200860BE
:101C50000846406820F4FE0048604FF41F0088608A
:101C6000FFF768FF4FF000600449086010BD0000F6
:101C7000001002400000FFF8FFFFF6FE08ED00E054
:101C800021B1028842F00102028004E002884FF68E
:101C9000FE731A400280704701894FF6F8721140B6
:101CA0000181704770B5002400220023058C4FF697
:101CB000FE7635400584028C8388048B4FF68F7541
:101CC0002C40B51E2C400D882C43751E2A400D89D2
:101CD0002A434D882A43144DA8420BD0134DA842E5
:101CE00008D0134DA84205D0124DA84202D0124D83
:101CF000A84213D14FF6F7752A404D892A434FF673
:101D0000FB752A408D882A434FF6FF652B404FF61E
:101D1000FF552B408D892B43CD892B438380048332
:101D2000CD888586028470BD002C014000340140BE
:101D300000400140004401400048014070B50024CB
:101D400000220023058C4FF6EF7635400584028C87
:101D50008388048B48F6FF752C404FF6FF452C40D6
:101D60000D884FF6FF7606EA05252C434FF6DF7502
:101D70002A400D8906EA05152A434D8806EA05150D
:101D80002A43154DA84202D0144DA8421DD14FF64A
:101D90007F752A404D894FF6FF7606EA05152A43DE
:101DA0004FF6BF752A408D8806EA05152A434FF67F
:101DB000FF352B404FF2FF752B408D8906EA8505D4
:101DC0002B43CD8906EA85052B4383800483CD8888
:101DD0000587028470BD0000002C014000340140E2
:101DE00070B5002400220023058C4FF6FF663540B5
:101DF0000584028C8388848B4FF68F752C404FF6B8
:101E0000FC752C400D882C434FF6FF552A400D8958
:101E10004FF6FF7606EA05252A434D8806EA052592
:101E20002A43154DA84202D0144DA8421DD14FF2AD
:101E3000FF752A404D894FF6FF7606EA05252A43AD
:101E40004FF6FF352A408D8806EA05252A434EF6CF
:101E5000FF752B404DF6FF752B408D8906EA051561
:101E60002B43CD8906EA05152B4383808483CD88D7
:101E70008587028470BD0000002C014000340140C1
:101E800070B5002200230024058C4EF6FF76354005
:101E90000584038C8488828B48F6FF752A404FF6B0
:101EA000FF452A400D884FF6FF7606EA05252A43AE
:101EB0004DF6FF752B400D8906EA05352B434D88FD
:101EC00006EA05352B430B4DA84202D00A4DA84225
:101ED00008D14BF6FF752C408D894FF6FF7606EA48
:101EE00085152C4384808283CD88A0F840500384DC
:101EF00070BD0000002C0140003401408186704715
:101F00000187704781877047A0F840107047000034
:101F1000002202881D4B98420ED01D4B98420BD0D8
:101F2000B0F1804F08D01B4B984205D01A4B984215
:101F300002D01A4B984204D14FF68F731A404B8847
:101F40001A43174B984207D0164B984204D04FF6CD
:101F5000FF431A40CB881A4302808B8883850B8805
:101F600003850A4B98420BD0094B984208D00E4B80
:101F7000984205D00D4B984202D00D4B984201D1AA
:101F80000B7A03860123838270470000002C0140F6
:101F9000003401400004004000080040000C0040F4
:101FA0000010004000140040004001400044014087
:101FB0000048014000BFFEE7490050EAC12018BFB9
:101FC00004204A0D18BF40F0010040F2FF72B2EB4E
:101FD000515F08BF40F00200012808BF052070478C
:101FE00030380A2801D201207047002070470000D5
:101FF000FFF780FBFFF71FFD4AA201210846FFF70C
:102000001BFC49A201210220FFF716FC47A2012177
:102010000320FFF711FC46A201210420FFF70CFC6E
:102020007FE00020FFF74EF9424908800120FFF7CA
:1020300049F9414908800220FFF744F93F490880E7
:102040000320FFF73FF93E4908803A490988C1F566
:10205000805000F00DFA05464FF08B4100F026F954
:102060000446384900F01CFA3749086032490988AB
:10207000C1F5805000F0FCF905464FF08B4100F0AF
:1020800015F904462F4900F00BFA304908602B4936
:102090000988C1F5805000F0EBF905464FF08B41FF
:1020A00000F004F90446274900F0FAF928490860CD
:1020B00023490988C1F5805000F0DAF905464FF050
:1020C0008B4100F0F3F804461E4900F0E9F921497C
:1020D00008601D480068FFF7B5FC1C480068FFF762
:1020E000CFFC1B480068FFF7E9FC1A480068FFF7BF
:1020F00003FD15480B2102680120FFF7B1FB1348CF
:102100000B2102680220FFF7ABFB11480B2102688C
:102110000320FFF7A5FB0F480B2102680420FFF7FF
:102120009FFB7EE74130000041310000413200005A
:1021300041330000000000200200002004000020C5
:102140000600002000003443080000200C0000209E
:10215000100000201400002010B500290AD00878D3
:10216000002807D005487844FEF752FC002801D02B
:10217000002010BD0248784410BD0000660C00002D
:102180005E0C00000808A0F500114FEA310170470D
:1021900043004FEAD30C4FEA3C0C43401FBF4007BB
:1021A0000CF1605113F0FE4F70471CF0006F03D12B
:1021B00000200CF0004170470CF0004343EA5070DF
:1021C00010B540EACC0000F0ECF900BF000000922E
:1021D0004FEA0001FFF7D6BF4FF000414FF000007B
:1021E000A1F500217047000090EA010F48BF81F07F
:1021F000004100F12882421A3CBF801A89184FEA38
:10220000D0524FF07F4C1CEA410FA2EBD15318BFC4
:102210009CEA026F00F03B804FF0004C4CEA00203B
:102220004CEA012121FA03FC10EB0C0C1ED202F146
:10223000FF325FEA1C2040EBC25038BF70471CF0F1
:102240007F0F4FEA400C18BFBCF17F4F38BF70477B
:10225000C3F12003994008BF20F00100BCF17F4F7B
:1022600038BF7047A0F1C04000F0E1B94FEA3C0030
:10227000000A40EBC25028BF1CF0FF0F4FEA400C91
:10228000E6D018BFBCF17F4F38BF7047EAE79CEA41
:10229000026F05D010EA5C0F08BF00F000407047E5
:1022A00010B500F07EF900BF64FBBE3E4FF47F0C1A
:1022B0001CEAD0121EBF1CEAD11392EA0C0F93EA5B
:1022C0000C0F00F0858090EA010F48BF42F4807245
:1022D00040F4000C41F400002CF07F4120F07F40DE
:1022E00000B58142A2EB03020FF2081CACEB504E8A
:1022F000C0F100009EF800E04FEA4E0E00FB0EFC1D
:1023000038BF49004FEA2C1C02F5FA020CFB0EF311
:102310004FEACE1E4FEA112C4FEAC1210EEB635E4D
:1023200042EB22420EFB0CFC4FEA1C5300FB031154
:102330004FEA112C4FEA01310EFB0CFC4FEADC4C4A
:1023400000FB0C11C14228BF09184CEB03335DF8A8
:1023500004EB10EB410143EBC250B2F57C0F38BFE8
:10236000704729D512F0F00F1CBF00F1C04000F0FB
:1023700000407047008182838485868788898B8CA2
:102380008D8E8F919293959697999A9C9D9FA0A2DE
:10239000A3A5A7A8AAACAEB0B2B3B5B7B9BCBEC02E
:1023A000C2C5C7C9CCCED1D4D7D9DCDFE2E6E9ECCF
:1023B000F0F3F7FAFE0000004FEA400C0CF1807CCD
:1023C000BCF17E4F28BF7047B0F1C04000F02FB97C
:1023D00090EA010F0CEAD11348BF42F480726245C3
:1023E00038BF634507D213F47F0F16D080EA01008F
:1023F00000F00040704710B500F0D3F8097EFC3EB5
:1024000000F005B880EA010000F00040704780EA63
:10241000010000F0004000F00AB912F47F0F04BF81
:102420000248704780EA010000F001B90000C07F57
:10243000C10DD1F19E0206DB4FEA002343F00043B9
:1024400023FA02F07047004207D54FEA4001B1F18C
:10245000FE4F02D24FF00000704710B500F0A1F817
:1024600049922480002070476FEA200070470000E6
:1024700010F0004148BF4042B0FA80F310FA03F276
:10248000C3F19D030BD051EAC35101EB1220530657
:1024900038BF704700F1010008BF20F0010070470D
:1024A0004FF47F0C1CEAD0121EBF1CEAD11392EA33
:1024B0000C0F93EA0C0F00F0478090EA010F48BF21
:1024C00042F480724FF0004C4CEA00204CEA0121AB
:1024D00002EB0302A0FB0113A2F50002002918BFC2
:1024E00043F001035B0028BF4FEA330342EB224273
:1024F0005FEA132C4CEBC2502EBFBCEB436FB2F51E
:102500007C0F70474FEA036CBCF1004F08BF20F00E
:102510000100B2F57C0F38BF70470BD582F0FF0287
:1025200012F5803FC8BF704700F1C040D8BF00F02F
:102530000040704700F5000C5FEA4C0C48BF704744
:10254000B0F1C04000F073B890EA010F0CEAD1136B
:1025500048BF42F48072624538BF634504D280EAC6
:10256000010000F00040704710B500F01AF800BFFD
:102570008900013E00F007B800F009B85FEA410C9D
:102580005FEA1C6C08D080EA010000F050B85FEAF6
:10259000400C5FEA1C6CF6D14FF00040A0F58000C3
:1025A00070470EF1020E2EF0030E5EF8044B24422B
:1025B00004D44FEA4102B2F17F4F11D84FEA4003F1
:1025C000B3F17F4F0CD80ED14FEAD07CB2F17F4FE0
:1025D0000CEB4C0C0CF1020C08BF4CEBD17C04E072
:1025E0004FF0080C01E04FEAD17C0CEB4C0324FACD
:1025F00003F404F00704B4F1040C06D20EEB840CCF
:10260000BDE810404CF0010C6047DFE80CF0070813
:1026100002024FF00040A0F5800010BD08464200C5
:1026200018BFD2F1807288BF00F0004010BDFF21BA
:1026300041EAD050C005704790EA010F48BF81F0D1
:1026400000413FF5D8AD421A04D882F00042A0EB19
:10265000020011444FEAD0524FF07F4C1CEA410F68
:10266000A2EBD15318BF9CEA026F4AD04FF0004C46
:102670004CEA00204CEA012121FA03FCB0EB0C0CDF
:102680000FD412F0FE0F36D05FEA4C001DD50012B9
:1026900040EBC25038BF70471CF03F0F18BF704767
:1026A0000BE0A2F101025FEA1C2040EBC25038BFF0
:1026B00070471CF07F0F18BF7047C3F1200399408B
:1026C00014BF401E20F00100704780084FEA12231B
:1026D00008BF7047B0FA80FCA2EB0C02CCF1280CCA
:1026E00060FA0CF093EA122F04BF00EBC25070475F
:1026F0004FEAC3707047130A5FEADC1008BF7047E7
:10270000F6E79CEA026F04D010EA5C0F08BF0020D5
:10271000704710B5FFF745FF40DFF63E81F00040FF
:102720007047FDF7F9BE0000000000000000000047
:10273000000000000000000000F8000000000000A1
:1027400000333000000000100C06100C06000000E2
:1027500000000000000040C07840C0784000043F06
:1027600004043F040400007088FC083000000018D6
:1027700020FF211E0000F008F000E01800000021FA
:102780001C031E211E0000F00888700000001E219E
:1027900023241927211010160E000000000000004D
:1027A000000000000000000000E01804020000002B
:1027B00000071820400000020418E000000000405C
:1027C000201807000000404080F0804040000202D6
:1027D000010F01020200000000F0000000000101F2
:1027E000011F01010100000000000000000080B096
:1027F0007000000000000000000000000000000168
:102800000101010101010000000000000000003092
:10281000300000000000000000008060180400602C
:1028200018060100000000E010080810E000000F8A
:10283000102020100F00001010F8000000000020F1
:10284000203F202000000070080808887000003039
:1028500028242221300000300888884830000018E1
:10286000202020110E000000C02010F800000007FA
:102870000424243F240000F8088888080800001970
:10288000212020110E0000E0108888180000000FA1
:10289000112020110E0000380808C8380800000078
:1028A000003F000000000070880808887000001CCD
:1028B000222121221C0000E010080810E000000086
:1028C000312222110F00000000C0C00000000000F3
:1028D0000030300000000000008000000000000018
:1028E000806000000000000080402010080000010F
:1028F00002040810200040404040404040000404D2
:10290000040404040400000810204080000000209B
:10291000100804020100007048080808F0000000D8
:10292000003036010000C030C828E810E000071869
:10293000272423140B000000C038E0000000203CD6
:1029400023020227382008F8888888700000203F7A
:10295000202020110E00C030080808083800071891
:1029600020202010080008F808080810E000203F88
:10297000202020100F0008F88888E8081000203F69
:1029800020202320180008F88888E8081000203F3D
:10299000200003000000C0300808083800000718B5
:1029A0002020221E020008F808000008F808203F36
:1029B000210101213F20000808F80808000000203C
:1029C000203F2020000000000808F8080800C08010
:1029D00080807F00000008F888C028180800203F89
:1029E00020012638200008F8080000000000203FE1
:1029F00020202020300008F8F800F8F80800203FD8
:102A0000003F003F200008F830C00008F808203FD1
:102A1000200007183F00E01008080810E0000F1021
:102A2000202020100F0008F808080808F000203FB8
:102A3000210101010000E01008080810E0000F1853
:102A4000242438504F0008F8888888887000203F78
:102A50002000030C30200070880808083800003877
:102A6000202121221C00180808F80808180000007E
:102A7000203F2000000008F808000008F808001FA8
:102A8000202020201F000878880000C83808000097
:102A900007380E010000F80800F80008F800033CB1
:102AA0000700073C03000818688080681808203079
:102AB0002C03032C30200838C800C8380800000058
:102AC000203F2000000010080808C83808002038FF
:102AD000262120201800000000FE02020200000053
:102AE000007F40404000000C30C0000000000000AB
:102AF00000010638C00000020202FE000000004093
:102B000040407F00000000000402020204000000B8
:102B100000000000000000000000000000008080B5
:102B2000808080808080000202040000000000009D
:102B3000000000000000000080808080000000197C
:102B4000242222223F2008F8008080000000003F5D
:102B5000112020110E000000008080800000000E77
:102B6000112020201100000000808088F800000E55
:102B7000112020103F200000808080800000001F76
:102B8000222222221300008080F0888888180020EA
:102B9000203F202000000000808080808000006BAB
:102BA00094949493600008F8008080800000203F97
:102BB000210000203F2000809898000000000020A5
:102BC000203F20200000000000809898000000C0F6
:102BD0008080807F000008F8000080808000203F17
:102BE00024022D302000000808F80000000000201A
:102BF000203F202000008080808080808000203F57
:102C000020003F20003F8080008080800000203F27
:102C1000210000203F200000808080800000001FF5
:102C2000202020201F00808000808000000080FF86
:102C3000A12020110E000000008080808000000E86
:102C4000112020A0FF8080808000808080002020D4
:102C50003F21200001000000808080808000003340
:102C6000242424241900008080E0808000000000DB
:102C7000001F202000008080000000808000001FD6
:102C8000202020103F208080800000808080000174
:102C90000E300806010080800080008080800F30A8
:102CA0000C030C300F00008080008080800000202A
:102CB000312E0E3120008080800000808080808155
:102CC0008E701806010000808080808080000021C6
:102CD000302C2221300000000000807C0202000025
:102CE0000000003F404000000000FF000000000026
:102CF0000000FF0000000002027C80000000004095
:102D0000403F000000000006010102020404000030
:102D1000000000000000000002400000000000A0D1
:102D20000000000005400000000000C80000000096
:102D30000C4000000000409C000000001940000012
:102D40000020BCBE0000000034400000BFC91B8E44
:102D500000000004B5400000504BCFD06607E2CF22
:102D6000010000006C4100003E8251AADFEEA73452
:102D700001000000D9420000DCB5A0E23A301F9704
:102D8000FFFFFFFFB4450000FD25A0C8E9A3C14F28
:102D9000FFFFFFFFFF3F0000000000800000000079
:102DA000FF3F00000000008000000000E82D000848
:102DB000000000201800000028010008002E000874
:102DC0001800002060060000440100081C000000FC
:102DD00043000000F8FFFFFF0C0000000E000000A1
:102DE0000F0000002E0000000000000000000000A6
:102DF00000000000000000000000000000000000D3
:04000005080000ED02
:00000001FF
