:020000040800F2
:10000000600600206D010008990300084303000802
:10001000950300081F0200080D05000800000000FD
:10002000000000000000000000000000BD03000808
:1000300023020008000000009B030008A904000838
:100040008701000887010008870100088701000870
:100050008701000887010008870100088701000860
:100060008701000887010008870100088701000850
:100070008701000887010008870100088701000840
:100080008701000887010008870100088701000830
:100090008701000887010008870100088701000820
:1000A0008701000887010008870100088701000810
:1000B0008701000887010008870100088701000800
:1000C00087010008870100088701000887010008F0
:1000D00087010008870100088701000887010008E0
:1000E00087010008870100088701000800F002F876
:1000F00000F02CF80AA090E8000C82448344AAF196
:100100000107DA4501D100F021F8AFF2090EBAE893
:100110000F0013F0010F18BFFB1A43F0010318473B
:100120006C0400007C04000000230024002500264D
:10013000103A28BF78C1FBD8520728BF30C148BF4A
:100140000B6070471FB51FBD10B510BD00F031F832
:100150001146FFF7F7FF00F0E1F900F04FF803B4A4
:10016000FFF7F2FF03BC00F053F800000948804796
:1001700009480047FEE7FEE7FEE7FEE7FEE7FEE789
:10018000FEE7FEE7FEE7FEE704480549054A064BA1
:1001900070470000AD040008ED000008600000207A
:1001A0006006002060020020600200207047704757
:1001B0007047754600F028F8AE460500694653467C
:1001C00020F00700854618B020B5FFF7DDFFBDE839
:1001D00020404FF000064FF000074FF000084FF0AE
:1001E000000B21F00701AC46ACE8C009ACE8C0093F
:1001F000ACE8C009ACE8C0098D4670470446AFF3CF
:1002000000802046FFF7ABFF004870470000002049
:1002100001491820ABBEFEE726000200704700BF70
:10022000FEE770472DE9F041024600250026002038
:1002300000230024002791F803C00CF00F0591F86B
:1002400003C00CF0100CBCF1000F03D091F802C0F9
:100250004CEA050591F800C0BCF1000F31D01468DC
:1002600000202BE04FF0010C0CFA00F3B1F800C0B5
:100270000CEA03069E4220D183004FF00F0C0CFACB
:1002800003F7BC4305FA03FC4CEA040491F803C0ED
:10029000BCF1280F06D14FF0010C0CFA00FCC2F89B
:1002A00014C00AE091F803C0BCF1480F05D14FF02B
:1002B000010C0CFA00FCC2F810C0401C0828D1D375
:1002C0001460B1F800C0BCF1FF0F34DD54680020A9
:1002D0002EE000F1080C4FF0010808FA0CF3B1F819
:1002E00000C00CEA03069E4221D183004FF00F0CA0
:1002F0000CFA03F7BC4305FA03FC4CEA040491F83A
:1003000003C0BCF1280F05D100F1080C08FA0CF865
:10031000C2F8148091F803C0BCF1480F07D100F176
:10032000080C4FF0010808FA0CF8C2F81080401CC5
:100330000828CED35460BDE8F08141617047016167
:10034000704700BFFEE7000008B50121102000F053
:1003500025F84FF48040ADF8000010208DF8030020
:1003600001208DF8020069460948FFF75BFF4FF452
:100370000040ADF8000069460548FFF753FF4FF411
:100380000050ADF8000069460148FFF74BFF08BD7B
:100390000010014000BFFEE77047704729B1064AD0
:1003A00092690243044B9A6104E0034A92698243D2
:1003B000014B9A617047000000100240704710B571
:1003C00000F002F810BD00000CB500200190009074
:1003D0003348006840F480303149086000BF30483D
:1003E000006800F4003000900198401C01900098D3
:1003F00018B90198B0F5A06FF1D12948006800F450
:10040000003010B10120009001E000200090009821
:10041000012843D12348006840F0100021490860BA
:100420000846006820F0030008600846006840F0B5
:10043000020008601A484068194948600846406848
:1004400048600846406840F480604860084640685C
:1004500020F47C1048600846406840F4E81048608A
:100460000846006840F08070086000BF0C480068D3
:1004700000F000700028F9D00948406820F003001F
:10048000074948600846406840F00200486000BFE5
:100490000348406800F00C000828F9D10CBD0000AA
:1004A00000100240002002407047000010B51348C1
:1004B000006840F001001149086008464068104992
:1004C00008400E494860084600680E4908400B493C
:1004D00008600846006820F48020086008464068EC
:1004E00020F4FE0048604FF41F008860FFF767FFAC
:1004F0004FF000600449086010BD00000010024089
:100500000000FFF8FFFFF6FE08ED00E000BFFEE789
:1005100000BF0100A0F10100FBD17047FFF714FFFD
:100520002FE04FF480411748FFF709FF1648FFF707
:10053000EFFF4FF480411348FFF7FFFE1248FFF72B
:10054000E7FF4FF400410F48FFF7F9FE0E48FFF7B1
:10055000DFFF4FF400410B48FFF7EFFE0A48FFF7BB
:10056000D7FF4FF400510748FFF7E9FE0648FFF7B1
:10057000CFFF4FF400510348FFF7DFFE0248FFF7BB
:10058000C7FFCEE700100140FFFF0F009C050008E9
:0C059000000000206006000028010008A8
:04000005080000ED02
:00000001FF
